:10000000883E0020DD3B0000D93B0000D93B0000CA
:1000100000000000000000000000000000000000E0
:10002000000000000000000000000000D93B0000BC
:100030000000000000000000D93B0000D93B000098
:10004000D93B0000D93B0000C11E0000191600007A
:10005000D93B0000D93B0000D93B0000D102000091
:100060004D2300005D2300006D2300007D23000070
:100070008D2300009D230000A1020000B1020000BA
:10008000C1020000593700006937000079370000CD
:10009000893700009937000065130000D93B000044
:1000A000D93B0000D93B0000D93B0000D93B000000
:1000B0000000000010B5064C2378002B07D1054B3B
:1000C000002B02D0044800E000BF0123237010BDC4
:1000D000F00900200000000088D40100084B10B592
:1000E000002B03D00749084800E000BF0748036819
:1000F000002B00D110BD064B002BFBD09847F9E731
:1001000000000000F409002088D4010088D4010018
:1001100000000000F0B58DB001AD1C230193002458
:10012000029401262E72EE72AE7229000820394B1D
:10013000984704AF3E723800374B98472800374B3A
:1001400098471423AB702E70123B6B702E712900F0
:100150003800334B98471E213800324B9847324DB8
:100160002800324B9847324A00231470D470002183
:1001700094809171D371137253729372D37213730B
:1001800093735373137454619461137714625462BC
:100190001485548594853423D1549670567025491E
:1001A0002800254B98472A68D38822210B43D38007
:1001B0001369002BFCD1136802210B4313601F4A03
:1001C00013698B43136193690A318B4308390B43DD
:1001D0009361110080225200CB681342FCD0174B70
:1001E0009969802252000A439A619A6940210A4320
:1001F0009A619A6920390A439A618023DB0590222B
:10020000D2001A8104225A701A005378042BFCD1B0
:100210000DB0F0BD21170000AD1700002D03000048
:1002200041030000F5030000440A00209D3B00004C
:100230000C0A002000080043E537000000140040CD
:1002400010B50248024B984710BDC046440A002032
:10025000D53A0000F0B5C64600B580000E4BC75831
:100260003B68DE6ABB6B7A6B13401E4000240B4B6D
:10027000984602E00434302C0AD04346E558354213
:10028000F8D03B195B68380098473B68DD62F1E7BE
:1002900004BC9046F0BDC046541000208CBC010048
:1002A00010B50020014B984710BDC0465502000014
:1002B00010B50120014B984710BDC0465502000003
:1002C00010B50220014B984710BDC04655020000F2
:1002D00010B50C4B1C698621C9058A6998680243D0
:1002E0009A60094B8B61002C05D0206863689847A1
:1002F000A468002CF9D1034BD9689A688A439A60A4
:1003000010BDC04600000020FF0FFF0F06490B6A1A
:10031000012213430B628623DB051A7019000B7848
:100320001342FCD17047C046000400400123037013
:10033000002343708370C3700371437170470000E2
:1003400070B582B005000E00254B9847254B1B6801
:10035000DA070ED55B08012401221A420AD05B0895
:100360000134E4B20C2CF8D11F4B9847142002B092
:1003700070BD00241B4A11680123A3400B43136086
:100380001379013B1371184B98471420FF2CEED0C2
:100390002C707378022B0AD001A9F3780B70053406
:1003A000E4B22000114B98472000114B9847B278D7
:1003B0007F2313403279920313437279D20313439C
:1003C00072781202C02189000A40134332789202E7
:1003D000C02109010A4013436B600020C7E7C046F3
:1003E000590E000000000020990E00006535000045
:1003F000F5340000027801321F2313408622D20513
:10040000203189008B500378416808339B00995054
:1004100000207047F8B50B78022B03D0042B00D1D5
:1004200096E0F8BD4B7B1E2B00D98DE09B008B4ADC
:10043000D3589F460E7B002E1ED08F68002F1BD0F6
:100440008748884CA04739788748A04731008748BB
:10045000A0478748A047013E002E09DD0024814DBA
:100460003B1959788348A8470134E4B2B442F7DB1A
:100470008148824B9847D4E78148804B9847D0E722
:100480008048784B9847CCE77F48764B9847C8E739
:100490007E48744B9847C4E77D48724B9847C0E745
:1004A0007C48704B9847BCE77B486E4B9847B8E751
:1004B0007A486C4B9847B4E779486A4B9847B0E75D
:1004C0007848684B9847ACE77748664B9847A8E769
:1004D0007648644B9847A4E77548624B9847A0E775
:1004E0007448604B98479CE773485E4B984798E781
:1004F00072485C4B984794E771485A4B984790E78D
:100500007048584B98478CE76F48564B984788E798
:100510006E48544B984784E76D48524B984780E7A4
:100520006C48504B98477CE76B484E4B984778E7B0
:100530006A484C4B984774E769484A4B984770E7BC
:100540006848484B98476CE76748464B984768E7C8
:100550000B791E2B7DD89B00644AD3589F46644874
:10056000464B984763490220634B98470022634BF0
:100570001A7063483B4B984753E75D483F4B984799
:10058000F7E74048374B9847F3E73F48354B9847E4
:10059000EFE73E48334B9847EBE73D48314B9847F0
:1005A000E7E758482F4B9847E3E73A482D4B9847E1
:1005B000DFE739482B4B9847DBE73848294B98470A
:1005C000D7E73748274B9847D3E73648254B984716
:1005D000CFE73548234B9847CBE73448214B984722
:1005E000C7E733481F4B9847C3E732481D4B98472E
:1005F000BFE731481B4B9847BBE73048194B98473A
:10060000B7E72F48174B9847B3E72E48154B984745
:10061000AFE72D48134B9847ABE72C48114B984751
:10062000A7E72B480F4B9847A3E72A480D4B98475D
:100630009FE729480B4B98479BE72848094B984769
:1006400097E72748074B984793E72648054B984775
:100650008FE72D48034B98478BE7C046BCBC010091
:1006600008BE0100AD5D010024BE010044BE0100D2
:100670005CBE010068BE01006CBE0100715E01003D
:100680008CBE0100B0BE0100C4BE0100DCBE010092
:10069000F4BE010004BF01001CBF010038BF01000F
:1006A00050BF010064BF01007CBF010098BF010082
:1006B000B8BF0100D8BF0100F4BF010008C00100AD
:1006C00020C001002CC0010038C001005CC0010046
:1006D00078C0010090C00100A4C00100B4C00100B6
:1006E000C8C00100E0C00100F4C0010038BD010035
:1006F00004C10100780A00200DA80000790A00203A
:1007000040C101001CC101002CC1010010B582B024
:10071000104B1B78002B13D10F4B1B78012B11D0E2
:100720000E4902200E4B984701220B4B1A700D4BBD
:100730001878002300930C4B00220C490C4CA04766
:1007400002B010BD0B490220054B98470022024B16
:100750001A70ECE7610A0020790A002035000020B9
:100760000DA80000340000200D07000020A10700A4
:10077000B5AE0000780A0020F8B50F480F4B984737
:100780000F4F390002200F4EB0470F4C0025257047
:1007900039000320B04725700C4B98470C4B984705
:1007A0000C4B98470C4B98470C4B98470C4B984771
:1007B0000C4B9847F8BDC046C4C20100715E0100F1
:1007C000780A00200DA80000790A00207DA800000A
:1007D000AD40000091A0000019AE00009D44000053
:1007E000C9A00000CDB4000070B58AB004004E4925
:1007F0004E484F4B984720004E4B9847A31E012B65
:1008000000D878E0002C03D1052227236B441A700E
:10081000272169440720484CA04748490020A047A9
:1008200047490120A04747490320A04726216944A2
:1008300001250D701920A047252169440D7006205F
:10084000A04709A900230B703320A04708220021EC
:1008500001A83D4CA0470822002103A8A047102270
:10086000002105A8A0473948394B98476B465C1CC6
:10087000220000212320374B98472378022B3FD0BA
:10088000002B45D06B469C1C220000210720314DD7
:10089000A84721783048314CA04701AA0021002008
:1008A000A8472F48A047082101A82E4EB04703AA09
:1008B00000210120A8472C48A047082103A8B047E1
:1008C00005AA00210320A8472848A047102105A811
:1008D000B0476B46DE1C320000211920A84724488F
:1008E000A0473378012B17D0042B19D02148184B7F
:1008F00098470AB070BD032227236B441A7081E722
:100900001D48134B984702211C48144B9847B9E7E0
:100910001B480F4B9847B5E71A480D4B9847E5E73A
:1009200019480B4B9847E1E7F9090000150400004E
:10093000C1C2000085FD00004DF800002C00002021
:10094000140000201C000020F95C0100F0C101002F
:10095000715E010009D800006CC20100AD5D0100AC
:100960007CC20100890D000088C2010094C2010010
:10097000A0C2010094BF01002CC2010044C20100CA
:1009800054C20100ACC20100B8C2010030B583B04E
:100990000F4C20000F4B98472078002400940E4BFA
:1009A00000220E490E4DA8470E4B1C7000200E4B26
:1009B000984704000D480E4B98470020082C01D0A2
:1009C00003B030BD0B480A4B98470120F8E7C046FA
:1009D0003400002081AE00000D07000020A10700B8
:1009E000B5AE0000610A00203DD10000F0C2010058
:1009F000715E010024C3010010B5082816D010282C
:100A000026D0182831D01B283CD00024274B1C703E
:100A100027490220274B9847274B1C702748284B13
:100A20009847224B1B78002B39D010BD01221F4B59
:100A30001A701F4906381F4B984700221E4B1A7028
:100A4000204B1878204B984720481D4B9847E8E7E3
:100A50000024164B1C7016490E38164B9847164B3F
:100A60001C701B48164B9847DBE700240F4B1C708B
:100A70000F4916380F4B98470F4B1C701548104BF9
:100A80009847CEE70024094B1C7009491938094BD7
:100A90009847094B1C701048094B9847C1E70F480D
:100AA000074B98470E4B9847BFE7C046610A0020A6
:100AB000780A00200DA80000790A0020C8C10100B2
:100AC000715E010034000020CDB1000078C101004A
:100AD0008CC10100A4C10100B0C10100D8C1010056
:100AE0008D09000010B5114C2478002C00D110BDE8
:100AF0000F4C626023722070617020000D4B98478C
:100B0000082807D00C4902200C4B984700220C4BB8
:100B10001A70ECE70B480C4B98470C490220074B26
:100B200098470122064B1A70E1E7C046610A00208F
:100B30006010002099C40000780A00200DA8000071
:100B4000790A002050C30100715E010035000020C9
:100B5000F0B591B0050007A901240C700020354BB9
:100B600098470020344B98470BA80022002382802E
:100B7000C28003724372837007328272383282817C
:100B8000847304823B3A02704370B723DB004382D4
:100B90002A4B984707202A4B98472A4C0720A04702
:100BA0000028FBD008A900234B700B724B7207334F
:100BB0000B70013B4B600020234B9847234B984719
:100BC000234B984729002348234DA8470BA8234BC4
:100BD000984723490B98234B98472349234B984721
:100BE0008421C905224B9847071C224CA0470100CD
:100BF0002148A847A0470590204C214E381CB047FB
:100C0000029003910B98B04700900191059B1D4AFB
:100C1000142120001C4EB04721001C48A84720008A
:100C20001B4B9847C3B2220001210020194CA0475A
:100C300011B0F0BD65350000F5340000012F000053
:100C4000892F0000C53000009D330000694200007C
:100C5000E93D0000B4BD0100AD5D01005DA90000EB
:100C600000001041C53101000000A040E52D010049
:100C7000C12A010041020000C8BD0100640A002031
:100C8000B9530100DCBD0100A5600100ECBD01000D
:100C900029610100E50A00000020704710B584B00A
:100CA00001AB154A0192154A039201221A710022E2
:100CB000134B1A700020134B9847002801D104B041
:100CC00010BD00236A461370013353709370694658
:100CD00004200D4CA04769460520A0470B4B9847C0
:100CE0000B4B984701A80B4B98470028E7D10A4BBC
:100CF00098470A4B9847E2E760EA0000510B000072
:100D0000600A002009000100B51B0000353F00000B
:100D10008D4200000146000069420000E93D0000EC
:100D200070B50E4B98470E4B984705200D4B9847D2
:100D300001220D4B1A70BFF35F8F62B60B4B9847C1
:100D40000B4B98470B4B984700200B4B98470B4B8E
:100D500098470B4D0B4CA847A047FCE79536000081
:100D6000C10D00002D0E000040000020E93D0000F4
:100D70001501000079070000E90700008D09000057
:100D8000DDB400009D0C0000F8B5040000290BD074
:100D90000139CDB201354519054E064F2178300095
:100DA000B8470134AC42F9D10348044B9847F8BD29
:100DB00068C30100AD5D010094BF0100715E0100D8
:100DC00070B50020084B98470500084CFA218900AF
:100DD000A047074B186007492800A047064B18603A
:100DE0000522064B1A6070BD8934000025240100DD
:100DF0003800002040420F003C00002010E000E0DE
:100E000030B5084B1C68084A00258021490201388A
:100E100007D3002CFBD05460956013680B42FCD0C4
:100E2000F5E730BD3C00002010E000E030B5084B95
:100E30001C68084A002580214902013807D3002C8C
:100E4000FBD05460956013680B42FCD0F5E730BDD1
:100E50003800002010E000E00C4B1B68002B06D18E
:100E6000EFF31083002B07D00022094B1A70074ABA
:100E7000136801331360704772B6BFF35F8F0022AF
:100E8000044B1A700132024B1A70F0E77C0A002002
:100E9000800A002040000020084B1A68013A1A60BE
:100EA0001B68002B09D1064B1B78002B05D00122B3
:100EB000044B1A70BFF35F8F62B670477C0A002044
:100EC000800A002040000020F0B5C64600B582B080
:100ED00001AC0125657000239846A37025702100A0
:100EE0001320124EB047124F80231B03BB612570A5
:100EF00021001220B0478023DB02BB612570210056
:100F00000D20B04780239B017B61257021000920C3
:100F1000B04780239B007B614346237065702100AE
:100F20001C20B04702B004BC9046F0BDB51B0000C9
:100F3000002800400020704710B5002300220370F5
:100F400043708370C370002103830362C36106246E
:100F50000471C0246401C480017242728272C27240
:100F600002732A24025542738273C27303610275AD
:100F7000063C0255C3840385417510BDF0B5CE46CD
:100F800000B598B005000C0016000800B24B984759
:100F90002C60B24A136A08210B431362227805239E
:100FA000D20704D5180018B004BC9146F0BD2A68D9
:100FB000138C9BB2002BFBD122781C339207F1D407
:100FC00073782B71002B04D1A54AD36904210B43FC
:100FD000D3610023AB60EB602B61AB76EB762B83A8
:100FE0002B7780009F4BC5502A23F35C002B05D143
:100FF000337B002B02D101336B7701E000236B7749
:101000002F6833786A46137069461E20964B9847BE
:101010001E20964B984734795822954902A8954B43
:101020009847132C0BD9F4885822914902A8914B68
:101030009847132C11D900248E4B99461EE0A4002A
:1010400002ABE05801A900234B70CB708B700133C9
:101050000B70C0B2884B9847E5E7A40002ABE0589C
:1010600001A900234B70CB708B7001330B70C0B2A1
:10107000814B9847DFE70134142C18D00123A3409B
:1010800032691A42F7D05822794902A8C847132C6E
:10109000F1D8A30002AA985801A900234B70CB7085
:1010A0008B7001330B70C0B2734B9847E3E7737BCF
:1010B0009B01B27BD2011343DBB23B70337DDB017A
:1010C00072781343DBB2BB70F378342B00D940E164
:1010D0009B006A4AD3589F460422102002211AE03E
:1010E000717A327A102016E006221020012112E0D7
:1010F0000822102000210EE00022302000210AE00A
:1011000000222020002106E000220020002102E031
:10111000022210200121090170230B4013433B736D
:101120002A68138C9BB2002BFBD1727D17333F2AA8
:1011300000D937E7F37BDB011A43D2B27A732A680E
:10114000138C9BB2002BFBD1B3787B702423F35C10
:10115000DB00327B92001A43F37A1343B27A5200D7
:10116000134303437B812A68138C9BB2002BFBD172
:10117000328B002A20D0102800D1C9E000D883E0AB
:10118000202800D1A3E0302816D1F37A002B0AD012
:10119000F16980311723FF2900D903E7316A8031D3
:1011A000FF2900D9FEE61723F169FF2900DDF9E6E2
:1011B000316AFF2900DDF5E67B891A437A812A68C6
:1011C000138C9BB2002BFBD1B38BFB812A68138C51
:1011D0009BB2002BFBD1338C3B822A68138C9BB2D1
:1011E000002BFBD13379F28813433B812A68138C9F
:1011F0009BB2002BFBD12A33F35CFB7007233B71BE
:101200001D33F35C002B1BD0F28C1D4917238A423F
:1012100000D9C7E67A822A68138C9BB2002BFBD1D7
:10122000318D80231B01CA18154892B217238242C0
:1012300000D9B7E6B9822A68138C9BB2002BFBD188
:10124000104B1B681A02E021C9000A409B065B0F85
:101250001343BB850023A5E6350F000000040040C2
:10126000001400406C10002065350000F5340000CB
:1012700044C40100D55B01006136000070C3010069
:10128000FF0F000020608000002895D1F37A002B2A
:1012900012D0F369802000018446634419002E486F
:1012A0001723814200D97DE6336A634419002A4836
:1012B0001723814200D975E627491723F069884230
:1012C00000DD6FE6306A884200DD6BE674E7F37A92
:1012D000002B12D0F36980208000844663441900FB
:1012E0001E481723814200D95CE6336A6344190023
:1012F0001A481723814200D954E618491723F06988
:10130000884200DD4EE6306A884200DD4AE653E757
:10131000F37A002B12D0F3698020000284466344E4
:1013200019000F481723814200D93BE6336A634412
:1013300019000B481723814200D933E608491723C7
:10134000F069884200DD2DE6306A884200DD29E63A
:1013500032E7172326E6C046FF0F0000FF03000018
:10136000FFFF000070B52F4B1C6823689A795D79E8
:101370001540EA072AD501229A716269931C6361BC
:1013800023689B8C9BB21380238B013B9BB22383EE
:10139000002B15D0637F002B18D02268D3795BB265
:1013A000002B13DB138C9BB2002BFBD1137E02218D
:1013B0000B4313762268138C9BB2002BFBD105E004
:1013C000012322681371237F052B16D06B0708D5E4
:1013D000042322689371E37E9B0702D5A37E9B07BB
:1013E00017D4AB0708D5022322689371E37E5B070D
:1013F00002D5A37E5B0710D470BD00232377E37E64
:10140000DB07E3D5A37EDB07E0D52000A368984780
:10141000DCE72000E3689847E3E72369200098476A
:10142000EAE7C0466C1000200123037000234370DC
:101430008370C37003710F2242718371C371037291
:1014400070470268136802210B431360704703233F
:10145000026853710268D3710268136802218B43DA
:101460001360704770B504000D00D37803712160DC
:10147000537843711379837113789B029178C90271
:101480000B43517809020B43D17889000B43117942
:1014900049010B4391798903D07940030143107AC4
:1014A0000003014352791204F020000302400A4372
:1014B00013431E002B689B0701D42E6070BD2000D3
:1014C000034B98472E602000024B9847F6E7C04632
:1014D0004F1400004314000070B5054CE5698023EB
:1014E0009B012B43E36101230B60024B984770BDC6
:1014F000000400406514000070B54379012B05D04D
:10150000002B10D0022B0DD1082500E0062500236A
:1015100010C99A1C92000668B446624454600133B4
:10152000AB42F5D370BD0425F1E7000010B50023F0
:10153000026813720F4B426813400F4A93420AD05D
:101540000379032B0ED00C001034036804C99A638E
:101550008C42FAD110BD03680A689A6303684A682E
:101560009A63F7E78379023B012BECD803680A689A
:101570009A63EFE7FF00FF00030001000023026809
:101580001372104B426813400F4A93420AD00379FA
:10159000032B0ED00A00103203689B6B08C18A42ED
:1015A000FAD1704703689B6B0B6003689B6B4B60C1
:1015B000F7E78379023B012BECD803689B6B0B6048
:1015C000EFE7C046FF00FF00030001001723002AD9
:1015D00001D0180070478B00064A9B58002B03D09F
:1015E000834205D01D23F4E7890088500023F0E7EB
:1015F0000023EEE7741000201723002901D0180003
:10160000704700221F2800D8024A0123834013613B
:101610000023F4E70024004070B50022104B1A703C
:10162000002310491F25104E0D4C0AE00D4908E01B
:1016300023780133DBB223700F2B10D800211F2B2E
:10164000F4D9280018400122824048691042EFD0A6
:101650004A619B009B59002BEAD09847E8E770BD90
:10166000701000200024004074100020064A1378F7
:1016700002210B431370012053681942FCD15368B7
:101680001842F9D17047C04600240040064A13783A
:1016900002218B431370012053681942FCD1536817
:1016A0001842F9D17047C0460024004010B5124AD4
:1016B000516980239B000B435361104A1378012129
:1016C0000B4313700131012053681942FCD1536858
:1016D0001842F9D1094A137810210B431370084BB3
:1016E00019004031002204C38B42FCD10822054B73
:1016F0001A60054B984710BD0004004000240040CC
:101700007410002000E100E06D160000002303606B
:1017100043600122027283720132C27243727047C7
:10172000F0B583B005000C001C4B984701A90023BD
:101730004B70CB7023790B70237A8B702078184B09
:10174000984700211F2D00D8164907222A409200F1
:10175000E77AA37A002B01D008231F43EB089B00F4
:10176000CB18D8690F269640B04397403A00024301
:10177000DA61637A002B0BD18A690123AB40DB432A
:101780001B041B0C13408B61074B984703B0F0BD43
:101790008A690123AB4013438B61F5E78D16000086
:1017A00061360000002400406D16000010B50400F2
:1017B0000B4B984700230021012002E00133202B2E
:1017C00006D0E25C002AF9D002009A401143F5E706
:1017D000044B9A6811439960034B984710BDC0466B
:1017E0008D160000002400406D16000010B51E4A42
:1017F000936904210B4393611C4B2022FF321A830F
:101800001A7D0523D20701D4180010BD03781B02EE
:10181000C022920013404178C901FF220A401343BD
:10182000817849001E220A401343C2789204802125
:10183000C9020A40134302791204C02189020A40F6
:1018400013430A4A536093685B035B0F08490824FB
:101850009C400C8093684B8043780B71138BDB05A5
:10186000DB0F1B01D0E7C0460004004000400041F0
:10187000840A002030B5304A1488538863438B4271
:101880000BD2802292012D4BCB18934205D92C4CC0
:1018900018232C4A8A18A2420ED82B4B5C6880224F
:1018A000D20222435A602022FF321A831B7DDB07BB
:1018B00004D4254B5C600523180030BD452829D889
:1018C0008300224AD3589F461F4B1B8BDB0503D551
:1018D0001D4B5C601023EFE7890849001A4BD96162
:1018E00003E089084900184BD961FD2305001A3D22
:1018F0001D4013D0A5231B021843134B1880190059
:1019000001220B7D1342FCD0002D0FD00E4B5C60EA
:101910000023D1E70C4B5C601723CDE70A4B5968D5
:101920008022D2020A435A605B68E3E7064A5368A2
:1019300007490B405360E9E7840A002000C07FFF9D
:10194000FF1F00000000C0FF004000419CC40100D8
:10195000FFFFFBFFF8B52F4B1C885B886343834276
:1019600007D22D4E18252D4BC318B34206D8012699
:1019700000E00026631E1825184201D02800F8BD9B
:10198000013D9442FAD3264B1B7D123DDB07F5D572
:10199000244C234B1C801D0001242B7D2342FCD0B2
:1019A0002024FF341E4B1C83002A2CD00123050069
:1019B0009D430023541EA44609E0CF187F783F02C0
:1019C0003C432C8002339BB202359A4204D9CC5C52
:1019D0006345F2DBA4B2F4E70E4B1B790025002B24
:1019E000CCD13F2ACAD8002E06D100220100042003
:1019F0000D4B98470500C1E7002201001C200A4B4F
:101A000098470500BAE7034B1B790025002BEAD065
:101A1000B4E7C046840A0020FF1F00000000C0FF9A
:101A20000040004144A5FFFF7518000070B51B4B36
:101A30001C885B886343834205D2194E1825194BD5
:101A4000C318B34203D8631E1825184201D02800DA
:101A500070BD013D9442FAD3134B1B7D123DDB0751
:101A6000F5D52024FF34104B1C83002A14D0012309
:101A700098430023561E04E002339BB202309A4280
:101A800008D90488A4B2CC54B342F5DACD18240A9C
:101A90006C70F1E70025DAE70025D8E7840A00201A
:101AA000FF1F00000000C0FF0040004110B5224AA7
:101AB000138852885A43824207D2204C1822204968
:101AC0004118A14207D8012400E000249B00013BFB
:101AD0001822184201D0100010BD1A4B1B7D133A7A
:101AE000DB07F8D5174B2022FF321A83800840000D
:101AF000D861002C1BD059688022D2020A435A6058
:101B00005A68114A1A800F4901220B7D1342FCD0FA
:101B1000002C04D00B4A53680C490B405360094B0E
:101B20001A8B1C200240501E82419200D3E7084AC3
:101B3000044B1A80E7E7C046840A0020FF1F00001C
:101B40000000C0FF004000411AA5FFFFFFFFFBFFA0
:101B500002A5FFFF154B2022FF321A839B68590311
:101B6000490F183AFF3A8A40027043801B0D838167
:101B70000F4B1B885B065B0F072B10D00622D21A77
:101B80000423934043600A4B1B8807221340072B12
:101B900008D00722D21A04239340836070470023A1
:101BA0004360F0E700238360F8E7C046004000414F
:101BB0000040800000B583B001AB80221A700A7823
:101BC0005A704A789A708A78DA701900014B9847EF
:101BD00003B000BD6136000003681869431E9841D8
:101BE000C0B2704770B5040006680422084B1A6042
:101BF000084D2000A8470028FBD133880222134358
:101C00003380044D2000A8470028FBD170BDC0469A
:101C100000E100E0D91B000070B504000668042153
:101C200080230A4AD1500A4D2000A8470028FBD142
:101C3000084B3381B3813388022293433380044DB0
:101C40002000A8470028FBD170BDC04600E100E09D
:101C5000D91B0000FF81FFFF70B5040006680A4B26
:101C600098470023A386E386084D2000A847002854
:101C7000FBD13388012213433380044D2000A84751
:101C80000028FBD170BDC046191C0000D91B000004
:101C9000F8B504000E0007680C4D2000A847002886
:101CA000FBD12379002B09D01720012B05D1BE6170
:101CB000064D2000A8470028FBD1F8BD044B172093
:101CC0009E42FAD8B6B23E83F2E7C046D91B000066
:101CD000FFFF000070B504000668084D2000A8470B
:101CE0000028FBD12379002B04D00020012B00D148
:101CF000B06970BD308B80B2FBE7C046D91B0000D5
:101D0000F0B583B00400019115000668134F200060
:101D1000B8470028FBD12379002B0ED0012B19D115
:101D20001730012D17D80835AD00019BAB510B4D75
:101D30002000A8470028FBD10DE01720022D0AD86B
:101D4000074B019A9A4206D86B469B8810356D0066
:101D5000AB53ECE71A2003B0F0BDC046D91B00001E
:101D6000FFFF000070B50400150001601F4A5169B3
:101D700080235B000B43536105221D4B1A611D4BF1
:101D80009847AB7823711C4B1C6022682B79DB03CE
:101D900029880B439BB21380AB78002B13D01720FC
:101DA000012B0FD113889BB21380EB78002B03D04B
:101DB000138880210B431380A968002220000F4B59
:101DC0009847002070BD138804210B431380EB78E3
:101DD0001720002BF6D10022A9682000074EB0473B
:101DE000E96801222000B0470020EBE70004004032
:101DF00000100040591C0000B4100020011D00001C
:101E00000A2A09D0072A07D90379002B10D0012B01
:101E100012D11633092A09D8931C9B001950838EBE
:101E2000012191400B439BB2838600231800704729
:101E300017230A2AFAD8EFE71723F7E710B5026845
:101E40000A2911D0072912D980235B000C00083C15
:101E5000A340C024A40023405381C38E01228A40A2
:101E600013439BB2C38610BD044B5381F5E7012495
:101E70008C40FF2323405381EFE7C0460080FFFFE3
:101E800010B502680A2910D0072911D980235B00F8
:101E90000C00083CA340C024A40023401381C38E3F
:101EA00001228A409343C38610BD044B1381F6E799
:101EB00001248C40FF2323401381F0E70080FFFFC3
:101EC000F8B5DE4657464E464546E0B52B4B1B68F7
:101ED0009A461E68DB8E5246928E1A409046B28910
:101EE000738913401AB2002A08DBFF271F402AD04B
:101EF000002401239946FE339B4614E043465B05CC
:101F000007D41F4BB3813CBC90469946A246AB46D2
:101F1000F8BD53461B6B9847F3E75B461D40B58100
:101F20000134082CEFD023004D46A5402F42F4D0B9
:101F30004246224149461142EFD002339B005246AD
:101F40009B589847E9E7DA050AD54346DB0503D4F1
:101F500080235B00B381D6E753469B6A9847F7E737
:101F60009B05D0D543469B0503D480239B00B381BA
:101F7000C9E75346DB6A9847F7E7C046B41000202C
:101F80000080FFFFF0B5DE4657464E464546E0B5B9
:101F900087B08046049116001F0000220023002114
:101FA0008B463F2401202100009601975C46039454
:101FB0004446059413E02024641A0500E540A84631
:101FC00014E0009C019D121BAB415C464D462C4326
:101FD000A346039C45462C430394013925D3202472
:101FE00064420C19E7D40500A540A84604008C40C3
:101FF000A14692185B4114001D00059E4F463E40CD
:10200000B446049E47463E40B246664657463E4367
:1020100003D00600264332002B00009C019D9D4208
:10202000DBD8CED19442D8D8CBE7039B58461900D1
:1020300007B03CBC90469946A246AB46F0BD10B5F1
:10204000490840230024814202D2180010BD1C0020
:10205000091A631C9BB28842F9D94023FF2CF4D89B
:1020600014800023F1E70000F0B583B00F001600E4
:1020700008AA117804004C434022BC4202D9100047
:1020800003B0F0BD002B14D1020008000021194C50
:10209000A04701003A0000230020174CA04700226F
:1020A0000123121A8B41120C1B041A4332800022A6
:1020B000E5E70022012BF9D10A00002300210D4C95
:1020C000A04702000B0000920193380000210A4C47
:1020D000A047050080239B0140229842CFD8790F6A
:1020E000F800009A019BA047EA00821AD2B252037C
:1020F0002A43DBE741280100851F000010B582B0AC
:1021000004000E4B1B78002B07D0002905D10B4B88
:102110005B78834210D01D200CE001A90C701120C7
:10212000074B98471120074B9847044B5C700122DE
:102130001A70002002B010BD0020FBE78C0A0020BE
:1021400065350000F53400003C4B984232D00AD986
:102150003B4B98424ED03B4B984255D03A4B98421D
:1021600038D0002070478423DB0598420CD0374BD1
:102170009842F6D1012917D0002957D0022915D04D
:10218000032915D00020EDE7012907D000294BD005
:10219000022905D0032905D00020E3E72C48E1E718
:1021A0002C48DFE72C48DDE72C48DBE72C48D9E753
:1021B0002C48D7E7012907D0002939D0022905D0BA
:1021C000032905D00020CDE72748CBE72748C9E7FA
:1021D0002748C7E7012907D000292BD0022905D0BD
:1021E000032905D00020BDE72248BBE72248B9E714
:1021F0002248B7E7022903D0032903D00020B1E722
:102200001F48AFE71F48ADE7012907D0002913D0C9
:10221000022905D0032905D00020A3E71A48A1E729
:102220001A489FE71A489DE71A489BE7032099E759
:10223000194897E7194895E7194893E700080042BD
:102240000010004200040043000C00420004004261
:10225000030005000300060003000700030001005F
:1022600003001E0003001F000300090003000A0012
:1022700003000B0003001100030012000300130011
:1022800003000E0003000F000300170003001800F6
:1022900003001900030004000300080003001000FD
:1022A0000300160030B587B00B4B6A4632CB32C202
:1022B00032CB32C2009B83420BD001239A00694685
:1022C0005258824206D00133062BF7D1002007B0C6
:1022D00030BD0023D8B2FAE7B4C501007047000052
:1022E000F0B50A4B1B78002B0CD1094F094E0A4D53
:1022F0000024DE515A1914600433182BF9D101223D
:10230000024B1A708000024BC150F0BD8E0A0020B3
:10231000900A0020DD220000B810002000B583B034
:1023200008236A46137001335370013393700133ED
:10233000D3700133137101335371034B98476B46CC
:10234000185603B000BDC046A522000010B5024BD0
:102350001B680020984710BD900A002010B5024B62
:102360005B680120984710BD900A002010B5024B11
:102370009B680220984710BD900A002010B5024BC0
:10238000DB680320984710BD900A002010B5024B6F
:102390001B690420984710BD900A002010B5024B1D
:1023A0005B690520984710BD900A0020F0B5D6461D
:1023B0004F464646C0B58AB006000F001400316093
:1023C0000B689B070AD40B680520DB0700D497E055
:1023D0000AB01CBC90469946A246F0BD936A05938C
:1023E000D36A0693136B0793536B089300250AE097
:1023F00038009A4B98470EE00F231840814530D1A2
:102400000135042D31D0E9B2AB0002AA0C2012181C
:10241000D0580028ECD0431CF2D001040B0C994694
:10242000000CC3B29C460023020605D463465B0938
:10243000DB018B4A904643441F22604602409818B5
:1024400040300078824680205146C907D6D55208D0
:102450009B1830331878C0B26346DB07CCD500092F
:10246000CCE7002333601C20B2E711207D4B984756
:1024700022780025012A26D06368A2681343E26807
:1024800013432B43227C617C002901D080210B4324
:10249000A17C002902D0802189020A43E17C002925
:1024A00002D0802189000A43217D002902D08021A9
:1024B00089010A433968022003438B4217D0002365
:1024C00033601C2084E704AA0100A069664B98478A
:1024D00003001720002B00D07AE73B7BDBB204AA75
:1024E000127805309A4200D072E70C35C4E77B6859
:1024F0009342E4D123787371237CB371002067E7A2
:1025000008005A4B9847052800D19FE0030012337A
:102510005749CD69012282402A43CA6109A924256D
:10252000625D0A70DBB201931800524B9847019824
:10253000514B9847605D0021504B98472378012B01
:1025400019D03368984604AB80221A7000225A7062
:1025500001219970DA702378002B01D104AB9A70B5
:10256000A36A0593E36A0693236B0793636B08934F
:10257000002705AD11E03B680C2213433B60E0E708
:102580004046364B98470DE004A90870000CC0B2D5
:102590003B4B98470137042F07D0F9B2BB0058597D
:1025A0000028EDD0431CEFD1F4E723787371237C2E
:1025B000B371A37CF371237D3372002202ABDA8006
:1025C0002378012B2AD06368A2681343E26813437F
:1025D000217C627C002A03D12A4A9278920701D595
:1025E00080221343A27C002A02D08022920211434F
:1025F000E27C002A02D0802292001143227D002A30
:1026000002D080229201114342461268134342468F
:10261000136053680B4353600020D9E63068134BB6
:1026200098471230C0B20F4B9847010002AB9A1D79
:10263000A0690D4B984703001720002B00D0C7E678
:1026400002AB06331B7842461373BCE7084A136A91
:1026500002210B431362182360E7C04649210000A2
:1026600000280040893500003F200000A52200001E
:102670000004004065350000F5340000FD20000036
:10268000613600000020004110B544791523012C6B
:1026900001D0180010BD047A0023002CF9D1002AC3
:1026A00058D04B78002B44D003681B7EDB0710D436
:1026B0000A78D1090023002904D15309DB012E49EE
:1026C0008C4663441F21114001228A409A610523F0
:1026D000DFE70A78D4090023002C04D15309DB0179
:1026E000254CA44663441F2414400122A2405A6191
:1026F00003681A7ED20701D58A789A62C2790023CC
:10270000002AC6D102680421137E0B42FCD0117E40
:1027100000234907BDD5538B5B0701D504235383A1
:102720008379012B02D0936A0023B2E7936A0023D6
:10273000AFE70A78D1090023002904D15309DB014E
:102740000D498C4663441F21114001228A405A6181
:1027500000239EE70A78D1090023002904D15309F8
:10276000DB0105498C4663441F21114001228A4048
:102770009A6100238DE7C04600280040F0B5DE4690
:1027800057464E464546E0B591B005000C00160090
:1027900029600800C44B9847020005280DD00700A7
:1027A0001237030021680520C90709D511B03CBCC8
:1027B00090469946A246AB46F0BD18270123F1E7A3
:1027C000216817308907F1D4052A49D0B749C8696B
:1027D00001229A4013000343CB610FA92D23984691
:1027E000F35C0B70FFB23800B14B98473800B14B27
:1027F00098474346F05C0021AF4B9847F37A6B71E2
:102800002423F35CAB712523F35CEB71F37E2B7215
:10281000337F6B722B6898461800A34B98470528A6
:1028200026D0123000220E2306A98C4663441A805B
:10283000328A02928023DB019A4200D1A7E019D9A3
:10284000C023DB01029A9A4200D19BE080231B0245
:102850009A4200D023E1032306930023079312E05A
:102860009249086A043A9A40130003430B62B4E7A2
:102870001820D7E780239B019A4200D00FE1102354
:1028800006930F3B079333680593F3689B46736980
:102890000393337E04932623F35C9A467368994628
:1028A000002B00D19BE080235B05994504D12723B1
:1028B000F35C002B00D180E0737E002B02D0B37E4E
:1028C000424693730E2306AA944663441B884246ED
:1028D0009381059B5A461343039A13434A46134375
:1028E000029F1F43049B1B021F4353465B071F436A
:1028F0002723F35C002B01D104331F43737E9B021B
:10290000327F52021343727F120213432422B25CBD
:10291000520413432522B25C12041343B17AF27AB3
:10292000114319433389FF2B7DD080225204174372
:1029300019432C23F35C002B03D1604B9B789B073E
:1029400001D580231F432A68D369002BFCD143465D
:1029500059602A68D369002BFCD143461F600EAB37
:1029600080221A7000225A70DA709A70336B0A93C0
:10297000736B0B93B36B0C93F36B02930D93002764
:102980000AAE5EE008230693073B07937BE73368B4
:102990000593F3689B4673690393337E0493262360
:1029A000F35C9A4673689946002B14D080235B052C
:1029B000994500D17BE7002020E0336A1F00C0B2B8
:1029C0003F4B984701000E2206AB9C4662443800FC
:1029D0003C4B984712E008230693002307932723D4
:1029E000F35C002B0ED0069B0093079B0E2206A9DA
:1029F0008C466244B16A306A334FB847002800D031
:102A0000D4E659E7336A1F00C0B22D4B9847010046
:102A1000069B0093079B0E2206A88446624438005A
:102A2000294FB847EAE7F37E002B82D08023DB04EE
:102A30001F437EE72000254B984707E00137042F0E
:102A40000DD0F9B2BB0098590028F3D0431CF5D043
:102A50000EA90870000CC0B21D4B9847EEE700238A
:102A6000EB602B616B61AB61EB612B62AB626B6204
:102A70000022EB85AB853033EA540133EA5401334D
:102A8000EA540133EA542868074B98470400114977
:102A9000114B9847A400114BE550002086E6102307
:102AA000069300230793EEE6A522000000040040F1
:102AB00065350000F5340000FD20000000200041D5
:102AC000893500003F2000006920000049210000F6
:102AD00061360000092C0000E1220000B81000203F
:102AE000C2791C23002A01D118007047C28D92B20E
:102AF000173B002AF8D1026811850221137E0B4290
:102B0000FCD00023F0E782791C23002A01D11800B1
:102B10007047828D92B2173B002AF8D10268107E6E
:102B20004007F4D5538BDBB298061DD0980703D528
:102B3000022353831833EAE7580703D5042353834A
:102B40001A33E4E7D80703D5012353831233DEE7B2
:102B5000D80603D5102353833233D8E79B0603D519
:102B6000202353832133D2E7138D0B800023CEE73C
:102B7000F0B5D64600B584B0040001911720002AB4
:102B800003D104B004BC9246F0BDA3790530002BFC
:102B9000F7D02668013A93B29A460025042719E037
:102BA000002302AAD380911D2000154B98470028CE
:102BB000E7D1691C89B202ABDB88019A535562796F
:102BC000012A14D00D005346013B9BB29A460D4B8F
:102BD0009A45D6D0337E3B42E2D10A4B327E3A420E
:102BE000DED1012B09D0013B002BF7D1D8E702350C
:102BF000ADB21B0A019A5354E5E71220C1E7C04663
:102C0000072B0000FFFF0000F8B58000624BC5589D
:102C10002C68E369002BFCD1237EA67D1E40302367
:102C2000EB5C3122AF5C1F40F30722D5EB8D9BB2EA
:102C3000002B1CD0AA6A1378DBB2511CA9626979F7
:102C400001290ED09BB2DB05DB0D2385EB8D013B0B
:102C50009BB2EB85002B0CD1013323750133A37597
:102C600007E0517809020B430232AA62EBE7012325
:102C70002375B30706D50223237500223133EA54A6
:102C8000FB071AD4730765D5AB8D9BB2002B5FD0C1
:102C9000638BDBB21A0714D43F221340002B34D0CD
:102CA0009A0711D51A223223EA54303B63837B07FB
:102CB00050D528006B6998474CE02800EB6898478E
:102CC000E0E737221340E9E75A0705D51E223223F1
:102CD000EA542E3B6383EAE7DA0705D51322322351
:102CE000EA54313B6383E2E7DA0605D54222322318
:102CF000EA54223B6383DAE720221A42D7D02132FA
:102D00003223EA54123B6383D1E7238DDB05DB0DCD
:102D1000DAB2696A0A706A6A511C696269790129C2
:102D200010D0AB8D013B9BB2AB85002B12D104338D
:102D3000237500222E33EA54BB070BD528002B69DC
:102D4000984707E01B0A53706B6A01336B62E8E730
:102D500004232375F30604D5102323752376FB067D
:102D60000ED4B30604D52023237523763B070BD45A
:102D7000330704D5082323752376BB0608D4F8BD92
:102D80002800EB699847ECE72800AB699847EFE724
:102D90002B6A28009847F2E7B810002010B50828E1
:102DA00003D880001C4B1B589F46002032E01B4B71
:102DB00018692FE01A4B187D0007800F431C194833
:102DC000584327E0154B586924E0144B1B6800203A
:102DD0009B071FD5124980225200CB681342FCD0BA
:102DE0000E4B1B685B0701D40F4813E000200F4B0C
:102DF00098470A4B9B681B041B0C58430AE0282386
:102E0000074AD35C00209B0704D5044BD86801E037
:102E10008020000210BDC046CCC50100A80A0020D9
:102E2000000C004000093D00006CDC028935000008
:102E300070B50B4C237D85784678027803211140CC
:102E400089000C2293430B430B3A324092014021FC
:102E50008B431343ED017F2213402B43237570BD39
:102E6000000C0040F0B5D6464F464646C0B5204B54
:102E70009A465B69457801784C424C41A14681787D
:102E80008C46C1788846467A077A847A4068194920
:102E90004861012148468000042293430343404691
:102EA0000840C000043293430343604608400001D9
:102EB0000832934303430F40BF01402083433B4309
:102EC0000E40F601403083433343793805402D02EC
:102ED000094803402B4321400903084803400B43A2
:102EE000524653611CBC90469946A246F0BDC0466E
:102EF00000100040A80A0020FFF8FFFFFFEFFFFFCF
:102F000010B5837A9B061B0C82899205920D1343A0
:102F10001A494B60037A427A13438288C488224359
:102F200013434278D20113438278920113430B601A
:102F30000378042B11D0202B0ED1837B9B06428A71
:102F40001343028A12040E490A4013430B4A93604A
:102F500011680C4B0B43136010BD837B9B06428AA8
:102F60001343028A120406490A401343034A93603A
:102F7000136804210B431360EEE7C046A80A002043
:102F80000000FF0324040000082803D88000294B18
:102F90001B589F4617204BE0274A137D02210B4305
:102FA0001375002044E0254A936902210B43936185
:102FB00000203DE0204A138A02210B4313820020A7
:102FC00036E01E4A536902210B43536100202FE073
:102FD0001B490B68022213430B60174B1A8319001D
:102FE000FE32CB681342FCD0154A9168124B19622D
:102FF0005268DA6100221A8319000132FF32CB686D
:103000001342FCD00E4B1B689BB20B4A138300206B
:103010000EE0094928228B5C022003438B540800F0
:103020003821263A435C1342FCD1002000E0002006
:103030007047C046F0C50100000C00400010004081
:10304000A80A0020082832D880001A4B1B589F4637
:10305000194A137D02218B43137500207047174ACC
:10306000936902218B4393610020F7E7124A138A88
:1030700002218B4313820020F0E7104A536902219A
:103080008B4353610020E9E70D4B1A6802218A4304
:103090001A601B689BB2084A13830020DEE70649CA
:1030A00028228B5C022083438B540020D6E7172014
:1030B000D4E7C04614C60100000C004000100040D8
:1030C000A80A0020082803D88000184B1B589F46E8
:1030D00000202AE0164BD868C006C00F25E0154B2B
:1030E000D8688007C00F20E0114BDB680120184032
:1030F0001BE0104BDB680120184016E00C4BD86831
:10310000D0231B0118400C4B9C466044434258415D
:10311000C0B20AE03C23064AD05C393B1840033871
:1031200043425841C0B200E00120704738C6010058
:10313000000C00400010004000F3FFFFF0B5CE4649
:10314000474680B58DB080225200784B9A60FD3A98
:10315000774B9A60774A53681E218B431A390B4389
:1031600053608023DB059B78022B0FD08023DB0587
:103170009B785BB2002B09DB8023DB0501229A716F
:1031800001329A701A009379002BFCD009A8002311
:10319000037080221202426083700122C270837227
:1031A0000421417043720272634B98470520634BC0
:1031B000984763490122CB681A42FCD0604A5369A0
:1031C00080210B43536101A901254D6000244C70FF
:1031D0000C724C7203230B7000205A4B9847062048
:1031E000594B98476B465C701D709C706846574BF6
:1031F00098470620514B98474C491022CB681A42F9
:10320000FCD001A901234B6000244C7005330B70E6
:103210000C724C7200204B4B984704AB00229C80F0
:10322000DC801A725A729A703F2199813B39197069
:103230005A70474B1B689B0E3F2B00D174E004A8CB
:103240008372B723DB0043820723837338330382FF
:10325000404B9847404B984701AC01260296002509
:10326000657065720523994623702672210001203E
:10327000344B984698470120384FB847657006236D
:103280002370257265724B46636021000220C0479F
:103290000220B847267021000020314B98470020BB
:1032A000304B98470720254B98472049D0221201E0
:1032B000CB6813409342FBD12B4C0123A371637164
:1032C000237101A900234B700B724B7207330B70F3
:1032D000013B4B6000201B4B984700201F4B984739
:1032E0000020224B98472179C9B2214B9847214BA6
:1032F000984214D88023DB059B78002B0FD08023C5
:10330000DB059B785BB2002B09DB8023DB05012208
:103310009A7100229A701A009379002BFCD00DB09C
:103320000CBC90469946F0BD203B88E7000C00405D
:103330000014004000400041652E0000892F00006D
:10334000001000409D33000045300000312E000089
:1033500020608000012F0000793300004934000014
:1033600065350000F5340000000400408934000099
:1033700025240100001BB700064A536940210B4376
:1033800053610122044B1A7019000B781342FCD1CF
:103390007047C046000400400018004070B50400AB
:1033A0000D784B78002B02D08023DB001D434B7A35
:1033B000002B02D080231B011D43486801280FD930
:1033C000431E184231D102282DD902230022013296
:1033D0005B009842FBD880235B011D431204154318
:1033E0000B7A002B02D080239B011D430426A640AC
:1033F0001149124A4B6813401E42FBD1104B9847AB
:10340000A4000D4B9C466444226A80235B001A4052
:103410002A4322626146094A4B6813401E42FBD18F
:10342000084B984770BD0022D5E7000480239B001D
:1034300018430543D4E7C04600180040FC070000CD
:10344000590E0000990E000010B5040004228240BD
:1034500009480A4943680B401A42FBD1084B984778
:10346000A400054B9C466444226A80235B001343FE
:103470002362044B984710BD00180040FC07000071
:10348000590E0000990E0000F8B504000422824095
:103490001248134943680B401A42FBD1114B98471D
:1034A0000E4F0834A400E0590007000F0E4B984758
:1034B0000600E559ED04ED0FE459240C0B4B984739
:1034C000002D07D1012C07D921003000084B984767
:1034D000060001E00134E6403000F8BD001800406D
:1034E000FC070000590E00009D2D0000990E000001
:1034F0002524010010B50400094B9847A000094B92
:103500009C4660448022835840210B4383504031C5
:10351000403A43581A42FCD0034B984710BDC0466E
:10352000590E000000180040990E000010B504006C
:10353000094B9847A000094B9C4660448022835861
:1035400040218B4383504031403A43581A42FCD1CA
:10355000034B984710BDC046590E000000180040AC
:10356000990E000070B504000D00054B98472A78AD
:103570000F2313402034A400024AA35070BDC0465C
:103580002D3500000018004010B50400064B984788
:103590002034A400054BE4582407240F044B98471B
:1035A0002000044B984710BD590E00000018004041
:1035B000990E00008934000030B5D378002B35D146
:1035C0001378802B29D01B0680246402234354786F
:1035D0000225AC4306D19478002C20D18024A4028B
:1035E000234341605478013C012C1CD90D042D0C5F
:1035F000A024E4052C431C4384620D0CD024240633
:103600002C431C438462D478002C22D15B031CD54C
:103610009378012B1ED0416117E00023D7E7C02427
:10362000E4022343DDE70D4C2340DFE741600C0457
:10363000240CA023DB05234383620C0CD0231B0640
:1036400023438362D378002B03D15378013B012BB2
:1036500002D930BD8161F8E78160FAE7FFFFFBFF27
:1036600010B50A00C1090023002904D14309DB0178
:1036700005498C4663441F242040012181401800E5
:10368000024B984710BDC04600280040B9350000E5
:103690007047000010B5054B9847054B9847054B00
:1036A0009847054B9847054B984710BD3D310000A2
:1036B000C90E00000D030000AD1600009136000099
:1036C000931C9B001950022A09D0032A0CD0012315
:1036D00093401A00037E1343037600207047037E55
:1036E000102213430376F8E7037E20221343037668
:1036F000F3E7000070B58000164BC45823689D7A2C
:10370000227E637E13401D40EB0706D4AB070BD42B
:10371000EB0610D4AB0615D470BD2000A368984703
:10372000012322689372F1E72000E368984702239F
:1037300022689372ECE720002369984710232268DF
:103740009372E7E7200063699847236820229A7202
:10375000E2E7C046D010002010B50020014B98478A
:1037600010BDC046F536000010B50120014B98474A
:1037700010BDC046F536000010B50220014B984739
:1037800010BDC046F536000010B50320014B984728
:1037900010BDC046F536000010B50420014B984717
:1037A00010BDC046F536000030B587B001A90C4BFE
:1037B0000A0032CB32C212CB12C2019B98420BD00C
:1037C000012301A99A005258824206D00133052BE9
:1037D000F8D1002007B030BD0023D8B2FAE7C046C8
:1037E00084C60100F0B5C64600B58EB004000D00D9
:1037F00016000800AE4B984780460CAB1B221A708F
:103800005A7001329A70DA7001321A7102A9A94B0A
:1038100014330A0083CB83C283CB83C283CB83C29E
:103820001B6813600023A360E36023616361237658
:10383000637643469A00A04BD45025603423F35C52
:10384000A376F378082B08D023712B680520DB07BB
:1038500008D50EB004BC9046F0BD17204246D207F2
:10386000F7D4F1E7EB7A17309B07F2D42B689B076C
:10387000EFD4337C002B12D1337F002B1BD1434676
:103880005A0002A9531C9B0058584346DB005B5862
:10389000D9B2042923D88B008849CB589F4601A967
:1038A00001238B700022CA70327E0A704B70307D0B
:1038B000834B9847E0E701A901238B700022CA706F
:1038C0002432B21812780A704B701F33F31818782C
:1038D0007B4B9847D3E77B494B6918434861F378A2
:1038E000082B00D186E033786A4613700CAB424651
:1038F0009F5C69463800744B98473800734B984773
:10390000F378F2791343B2881343727A002A02D013
:10391000802252021343B27A002A02D080229202FD
:103920001343F27A002A02D0802252031343327BDF
:10393000002A02D080229203134371788901B27861
:10394000D2011143194322681369002BFCD129606D
:1039500022681369002BFCD1B3792B73717B4B1E4A
:1039600099418900B37B002B01D0012319432268C0
:103970001369002BFCD1FF332B71002904D022687E
:103980001369002BFCD16971337A6B732268136958
:10399000002BFCD12379042B59D0082B74D017208D
:1039A000002B00D055E71369002BFCD1338DAB827F
:1039B00022681369002BFCD1738DAB8322681369D5
:1039C000002BFCD1B38DEB83002042E73D498B698E
:1039D0001843886183E73B49CB691843C8617EE798
:1039E00038490B6A1843086279E7364B596A08432D
:1039F000586274E743460133042B00DD73E702ABE2
:103A0000D11C8900C95802329200D358DAB2042A74
:103A100000D968E793002E4AD3589F46294A536934
:103A2000194351615FE7274A9369194391615AE746
:103A3000244AD3691943D16155E7224A136A1943CD
:103A4000116250E71F4B5A6A114359624BE71369E1
:103A5000002BFCD12833F35C2B7522681369002BF3
:103A6000FCD12933F35CEB7622681369002BFCD17F
:103A70002A33F35C2B7722681369002BFCD12B339C
:103A8000F35C6B770020E4E61369002BFCD1B36A8A
:103A90006B6122681369002BFCD1F36AEB61226829
:103AA0001369002BFCD1336B2B620020D1E6C0469A
:103AB000A937000084C60100D01000205CC60100B8
:103AC000613600000004004065350000F534000058
:103AD00070C6010002681369002BFCD113710168E4
:103AE0000B69002BFCD18033537102681369002BE2
:103AF000FCD10379042B05D0082B09D00020002B22
:103B000003D07047107DC0B2FBE7908A80B2F8E71F
:103B10005069F6E710B504682369002BFCD10379DE
:103B2000042B06D0082B28D0002B13D01723180005
:103B300010BD17230129FAD8837E002B05D0D2B2FD
:103B4000611830310A700023F1E7D2B2641822778D
:103B50000023ECE717230129E9D8837E002B05D049
:103B600092B2183149000A530023E0E792B20C31B7
:103B700049006418A2800023D9E717230129D6D869
:103B8000837E002B05D10631890064186260002312
:103B9000CDE70C3189000A510023C8E70368D97AC0
:103BA0001522890701D5100070471A6892070DD5B4
:103BB0001A69002AFCD133321A729A721A680221E9
:103BC0008A431A6001680A69002AFCD11A68012137
:103BD0000A431A600022E6E7FEE7000010B51A4A21
:103BE0001A4B9A4211D01A00194B9A420DD2194A17
:103BF00003339B1A9B0801339B0000221348124990
:103C00008C58845004329A42FAD1134A134B9A4288
:103C10000AD2D34311495B1803218B4304339B1809
:103C2000002102C29342FCD10D4AFF210D4B8B4370
:103C300093600D4A53687F390B4353600B4B984791
:103C40000B4B9847FEE7C04688D4010000000020D7
:103C5000F009002004000020F0090020881E002048
:103C600000ED00E00000000000400041C5550100EB
:103C7000210D0000F0B5C64600B50C0090460028A6
:103C80000FD1002A11DD8F18094E0A4D306821002E
:103C90002B6898470134BC42F8D1404604BC90469A
:103CA000F0BD01235B429846F7E78046F5E7C04642
:103CB000EC100020E4100020F0B5C64600B50E0060
:103CC00015000138022810D8002A11D000240C4B0E
:103CD00098460C4F43461868315D3B68984700286A
:103CE00008DB0134A542F5D106E00124644203E07B
:103CF000140001E001246442200004BC9046F0BDA1
:103D0000EC100020E81000200300064A1268002A88
:103D100004D0044A1068C318136070470249014A6E
:103D20001160F6E7C00A0020883E002001204042D2
:103D3000704780239B014B60002070470120704733
:103D40000020704770B582B005000E0000226B465F
:103D5000DA80064C6B46991D2800A0470028F9D14F
:103D60006B4606331B88337002B070BD072B000012
:103D700070B505008CB2034E21002800B047002822
:103D8000FAD170BDE12A000010B582B06B46DC1D8F
:103D9000012221000F48104B984772B6BFF35F8F86
:103DA00000220E4B1A700E4B1B7821780D4AD1540D
:103DB0007F2B0AD001330A4A13700122074B1A7075
:103DC000BFF35F8F62B602B010BD0022044B1A70C1
:103DD000F3E7C046C40A0020712B00004000002019
:103DE000780B0020F80A0020F0B591B08023DB05A5
:103DF000009300230193FF2269460A8100228B72FF
:103E0000CB720124242168464454013144540131C9
:103E10004354013143540A9305314354013143540F
:103E200005930382C3760276027742761323837664
:103E3000427780235B0303932F4B0C932F4B0D93FF
:103E400001235B420E930F93E1235B0208932C4DF9
:103E50002C4B1D602C4A2D4B1A602D4A2D4B1A609D
:103E60006A468421C90528002B4B98472B4F3B6895
:103E7000986800212A4EB0473B6858680021B04737
:103E80002E683000274B98471F2318408440264B4C
:103E90001C602A68D369002BFCD1336802221343CB
:103EA0003360174B1B68DA69002AFCD159688022FD
:103EB00052020A435A600121114AD171DA69002A7B
:103EC000FCD1DA69002AFCD15968802292020A43A7
:103ED0005A6001210A4A9171DA69002AFCD113491A
:103EE0000020134B984704228423DB059A75FC328B
:103EF0000D4B1A6011B0F0BD030004000300050073
:103F0000C40A0020EC100020713D0000E8100020E1
:103F1000453D0000E41000207D2700004400002003
:103F2000F15E01001D23000000E100E0893D00007A
:103F3000E122000070B5154D2C682000144B984705
:103F40001F2318401E3B8340802212498B502A6851
:103F5000D369002BFCD123680222934323600B4BCF
:103F60001B68DA69002AFCD15A680B490A405A607A
:103F70000021064AD171DA69002AFCD15A68074942
:103F80000A405A600022014B9A7170BDC40A002099
:103F90001D23000000E100E0FFFFFEFFFFFFFDFF2B
:103FA000134B1B6801211A7E0A42FCD01A7ED207ED
:103FB00000D5986202211A7E0A42FCD004211A7EA2
:103FC0000A42FCD01A7E002052070AD55A8B5207AB
:103FD00001D504225A83064A9279012A03D0986AAD
:103FE000C0B2C0B27047986AC005C00DF9E7C046BC
:103FF000880B002000B583B001A901234B7000227B
:104000008A700B702F20024B984703B000BDC0464A
:10401000B51B000010B5054B1B68002B04D0044BEA
:104020009847024B1B68984710BDC046840B002080
:104030007D45000010B5054B1B68002B04D0044BD8
:104040009847024B1B68984710BDC046800B002064
:104050007D45000010B5054B1B68002B04D0044BB8
:104060009847024B1B68984710BDC0467C0B002048
:104070007D45000010B5012202490348034B9847D3
:1040800010BDC046F0100020880B002089260000DB
:1040900010B5002202490348034B984710BDC046A3
:1040A000F0100020880B002089260000F0B5D646CD
:1040B0004F464646C0B590B001AC0126667000255B
:1040C000A570267021005220534FB84721003E2092
:1040D000B84721003F20B84721002F20B847802251
:1040E000D2024E4B9A614E4B8022D2059A618022B9
:1040F00012069A61802212029A61257021005320D3
:10410000B84702AC2000474B9847302302936560C4
:104110002572E672657221000020434B9A4698474B
:10412000002200214148424B994698470021002037
:10413000404B984698470B23029365602572E672C0
:10414000657221000B20D04700220B213A48C84756
:1041500000210B20C0470C23029365602572E67294
:10416000657221000C20D04700220C213348C8473B
:1041700000210C20C047324B98463F234246137023
:10418000557095706670A570267021003F20B84765
:1041900043461A78D1090023002904D15309DB01D1
:1041A00028498C4663441F21114001221000884099
:1041B000986102AC22700023039304932374637408
:1041C000A274E27423752332A354183A002108A87C
:1041D0001D4B98471D4BA36180235B02E3601C4B82
:1041E000A36201235B42E3621A4B23631A4B6363AE
:1041F0001A4D22001A4928001A4B98472A68D36999
:10420000002BFCD1136802210B43136010B01CBCBF
:1042100090469946A246F0BDB51B0000002900401B
:10422000802800400D1700002117000055400000B5
:10423000CD150000F91500003540000015400000C4
:10424000F010002000280040F95C010080841E006E
:104250000500530005003E0005005200880B0020B9
:1042600000100042AD230000074B1A68D369002BF1
:10427000FCD1136802210B431360034B1A68D36906
:10428000002BFCD17047C046880B0020064B1A68F3
:10429000D369002BFCD18F33137513761368022179
:1042A0008B4313607047C046880B002070B582B006
:1042B0000A4CA0470A4D802636026E610120094B48
:1042C000984701A900230B7001224A708B702F20A0
:1042D000054B9847AE61A04702B070BDF53F0000A6
:1042E0008028004049450000B51B000070B504005F
:1042F0000D00054B984780202043044CA047280020
:10430000A047034B984770BD75400000A13F0000D7
:104310009140000010B50400064B98477F202040D4
:10432000054CA047FF20A0470400044B98472000FD
:1043300010BDC04675400000A13F00009140000044
:1043400070B504000E0015000A4B984780202043EA
:10435000094B9847002D0AD03400013DEDB20135DC
:104360007519054E2078B0470134AC42FAD1034BA1
:10437000984770BD75400000A13F000091400000CB
:1043800070B504000E0015000A4B984720000A4B38
:104390009847002D0BD03400013DEDB20135751961
:1043A000054EFF20B04720700134AC42F9D1034BD9
:1043B000984770BD75400000A13F0000914000008B
:1043C000022807D0042808D0012800D07047044BE9
:1043D0001960FBE7034B1960F8E7034B1960F5E739
:1043E0007C0B0020800B0020840B002001280AD0C9
:1043F000002908D002280AD1012908D1802292017F
:10440000034B5A6103E080229201014B9A6170478D
:1044100000280040012801D0002903D18022920108
:10442000014B5A617047C046002800400220704787
:104430000020704710B580229200034B9A61022041
:10444000024B984710BDC046002800402D0E0000CA
:1044500080229200014B5A617047C04600280040FC
:10446000012802D002280CD0704704228023DB05EB
:104470005A701A005378042BFCD1BFF34F8F30BF12
:10448000F2E705228023DB055A701A005378052BCA
:10449000FCD1BFF34F8F30BFE6E7000010B584B00A
:1044A00001226B469A7000236946CB700A716A46F6
:1044B0000B80013B02930393044C05492000054BFC
:1044C00098472000044B984704B010BDF41000201A
:1044D00000200040651D0000E51B000010B50248EB
:1044E000024B984710BDC046F4100020D51C0000B8
:1044F00070B505000E000A4C00212000094B9847BA
:10450000082231002000084B984700222900200093
:10451000064B984708212000054B984770BDC046C0
:10452000F4100020911C0000011E0000011D00007D
:104530003D1E000010B508210148024B984710BDF0
:10454000F4100020811E000010B5002803D10120C6
:10455000024B984710BD024B9847FBE7010E000045
:104560002D0E000010B5014B984710BD590E0000EC
:1045700010B5014B984710BD990E000070B5164B51
:104580001B78012B00D070BD0022134B1A70134B07
:104590009847134B98471349134B9847134B984729
:1045A00004000D00124B984720002900114B98473A
:1045B000114B1B68002BE6D09E68002EE3D0FA2238
:1045C00092000023200029000C4CA047B047002295
:1045D000094B1A60D7E7C046940B0020DD44000069
:1045E0001D380100D723F441C53101000129010024
:1045F00035450000A9B30000980B002001280100F8
:1046000070B5041E5DD0304B1B780020002B00D00D
:1046100070BD2E4B984703000020002BF8D0236874
:104620002B4A944663442B4A9342F1D82379022BB8
:1046300029D0012B2DD001256D42244B9847030032
:104640000020002BE4D0244B984728000A38234B45
:1046500098472349234B9847234B98472349244B9A
:1046600098470122184B1A70224B1C60224A234B98
:104670001A62190004224B681A42FCD12079204B9F
:1046800098470120C4E71F4B9847431C17D00020D0
:10469000BEE71C4B9847431C0BD0FA2189001A4BEC
:1046A000984703000A4A81180A4A00209142AFD86D
:1046B00000E0164B25689D42BFD91D00BDE7256867
:1046C000BBE70020A4E7C046940B00206DB50000B6
:1046D00018FCFFFFC8BBCE0775B300001D380100F2
:1046E00075130342C5310100952801007D45000086
:1046F000F1440000980B0020052100000018004044
:1047000061440000B1B0000025240100B0BFCE0715
:104710007047000070B586B08E4B03212622995455
:10472000102404329C54293A26315A5402395A54DE
:104730001A00833200211A71150A5D71150C9D71E2
:10474000120EDA711A0043321A70150A5D70150CD8
:104750009D70120EDA701A00A3321A72150A5D7279
:10476000150C9D72120EDA721A006432FF321A743E
:10477000150A5D74150C9D74120EDA741A00343229
:104780001A75150A5D75150C9D75120EDA751A00ED
:104790003D321A76150A5D76150C9D76120EDA7684
:1047A0001A00C432FF321A73150A5D73150C9D731B
:1047B000120EDA73022222255A5501355A55002568
:1047C0001D77163D5D771C359D773135DD77163DBC
:1047D0005A553226013D5E55193D0E3E9D55013616
:1047E000995507369D5501369D5521355C55B13497
:1047F000FF341A55584A15786824FF341D555578EA
:104800002B3CFF3C1D5594783C229C540024043AD8
:104810009C5401329C5401329C5401329C54073206
:1048200099541A003E32117051709170D170C33199
:10483000FF315A5C01242243022422435A542E227F
:10484000985406380A2408281AD9444B1B78002BA0
:1048500002D10122414B1A70414B9847414B984776
:10486000414B98473B4B414A9A5C4149585C000296
:104870001043C1B2000A3F4B9847200006B070BDFC
:104880001C00180083302A3A3B493C4DA8472000C1
:10489000A33018223A49A8472000C430FF300C2228
:1048A0003849A8472000AE30FF3002223649A847D9
:1048B00002232848FF252A2402794179090211435D
:1048C000827912041143C27912060A4359008A18E8
:1048D00055700133DBB202579342EDDB1D4C1022C1
:1048E000C223FF33E254207863781B020343A0788D
:1048F00000040343E07800061843303223491F4B7D
:10490000984704230421224AA1540021214AA1549A
:10491000A2185370013184229200A154A21853703E
:104920000131124AA154A2185370002283239B0024
:10493000E2549C4664440023637002AB03321A7154
:10494000154A00921549039A154B0420154CA047AF
:1049500008247AE7501300204C1300209C0B002001
:10496000A98E0000D9950000AD9800001202000049
:1049700013020000E1A00000D8C60100D55B0100D1
:10498000C0C6010020C701001CC70100DCC6010031
:104990000B0200000E020000114700002C11002045
:1049A0002CC7010045A1000070470000F0B5DE46AD
:1049B00057464E464546E0B587B08346834C0321B3
:1049C0002623E15445310433E1544139033BE1549A
:1049D0002000B33000262071030A6371030CA37119
:1049E000030EE37143239846A04443462370434695
:1049F0001B0A637043461B0CA37043461B0EE370F7
:104A00002123F831E154082508270133E554013307
:104A1000E554833B9C46237770236377A777393B24
:104A2000E377C739173BE15424221A3BA3540132E0
:104A3000A6541B3292465422FF325346A354AA2353
:104A40005B00E5545023FF33E65401334E3AFF3AFE
:104A5000E2545223FF33E554453BFF3B994646332E
:104A6000FF334A46E2545623FF33E5540023994668
:104A70004423FF334A46E25423004433FF332822C1
:104A800052425A70742252429A703622DA7060236F
:104A900099464823FF334A46E25423004833FF3304
:104AA0007A2252425A70692252429A703622DA7041
:104AB0004C23FF336246E25423004C33FF33702211
:104AC0005A709F703722DA702300343323751A0A24
:104AD00062751A0CA2751B0EE37523003D33237615
:104AE0001A0A62761A0CA2761B0EE37605239C4600
:104AF00027336246E254223B9C4623336246E2540B
:104B00000F3B9C460A336246E2545823FF33E65477
:104B10002F4B9A461A7891463D224B46A354534652
:104B20005B789C463C236246E25400236354002198
:104B30003933E1540133E1540133E1540733E6548E
:104B400023003E33197059709970D9702E235A463C
:104B5000E25490221F49204B9946984770221F49E2
:104B60004046C847AB235B00E6541D4BE55400228A
:104B70001C4BE254E3185F7084239B00E254E3185B
:104B80005A70194BE254E3185A70013283239B0088
:104B9000E2549C466444677002AB01321A71134AB6
:104BA00000921349039A134B0820134CA047134B50
:104BB0009847134B9847134B9847082007B03CBCC5
:104BC00090469946A246AB46F0BDC0465013002021
:104BD0004C13002044C70100D55B0100D4C701007D
:104BE0000B0200000E02000012020000A9490000A2
:104BF0003011002044C8010045A10000F18F0000E1
:104C0000459600002199000070470000F0B58BB078
:104C1000A24B032126229954102504329D540624C8
:104C2000013A9C54053C023A9C541A0083320024F9
:104C30001A71160A5E71160C9E71120EDA711A0044
:104C400043321A70160A5E70160C9E70120EDA70DD
:104C50001A00C432FF321A73160A5E73160C9E7362
:104C6000120EDA731A00A3321A72160A5E72160C4A
:104C70009E72120EDA721A006432FF321A74160A29
:104C80005E74160C9E74120EDA741A0034321A75A1
:104C9000160A5E75160C9E75120EDA751A003D32F4
:104CA0001A76160A5E76160C9E76120EDA76212297
:104CB00099542226013A9E54193A02369A550136E1
:104CC0009C55052707369F5501369A55BA32FF3253
:104CD0009954993AFF3A9D54714A15786821FF31E9
:104CE0005D5455782B39FF395D5491783C229954A5
:104CF0000021043A995401329954013299540132F5
:104D0000995407329C541A003E32117051709170C0
:104D1000D1702E229854002806D0C623012800D135
:104D200084E018000BB0F0BD1C0018008330283A56
:104D30005C495D4DA8472000A33024225B49A84769
:104D40002000C430FF3048225949A8472000AE3027
:104D5000FF300C225749A84703235048FF252A2437
:104D60000279417909021143827912041143C2790F
:104D700012060A4359008A1855700133DBB20257F4
:104D80009342EDDB454B002222215A5401315A5403
:104D900008321A77223A5A77133A9A776032DA77DA
:104DA0002039454A99540021444A99549A180321BC
:104DB000517000218422920099549A180B3151703D
:104DC00000213F4A99549A185170832292009954B5
:104DD0009446634400225A7002AB01261E71394D7D
:104DE00000953949039A394B0320394CA04706AB4B
:104DF0001E7100953749079A374B0B20A047274A69
:104E0000107853781B020343907800040343D07852
:104E10000006184340223149234B9847304B9847AE
:104E2000304B9847304B984708237AE71B4C2000BB
:104E3000833006222D491C4DA8472000A330242290
:104E40002B49A8472000C430FF300C222949A8472D
:104E500003231248FF252A240279417909021143CC
:104E6000827912041143C27912060A4359008A1842
:104E700055700133DBB202579342EDDB074B05213E
:104E800022229954002101329954933A1A774132DF
:104E90005A77023A9A774A32DA77B0E7501300200D
:104EA0004C130020A4C80100D55B010078C80100A4
:104EB00004C90100ECC801000B0200000E02000052
:104EC00012020000094C0000341100204CC90100FE
:104ED00045A100003811002054C90100ACC80100F0
:104EE000618D000071950000419800009CC8010090
:104EF00054C80100F8C801007047000030B587B001
:104F0000724B032426229C54102104329954293ACE
:104F100019315A5402395A541A00833200211A7135
:104F2000150A5D71150C9D71120EDA711A0043326B
:104F30001A70150A5D70150C9D70120EDA701A0049
:104F4000A3321A72150A5D72150C9D72120EDA7276
:104F50001A006432FF321A74150A5D74150C9D74C0
:104F6000120EDA741A0034321A75150A5D75150CB2
:104F70009D75120EDA751A003D321A76150A5D76A5
:104F8000150C9D76120EDA762222995402250132F2
:104F90009D54333A1A77703A5A7726329A778D327F
:104FA000DA77123A9C542E35013A9D54193A0C3D49
:104FB0005A55013559559C35FF355C5529341A55DC
:104FC000223C26329C541434053A9C54404A1578AD
:104FD0001E341D550025043C1D5501341D5501345A
:104FE0001D5501341D5554783D229C540532995469
:104FF0001A003E32117051709170D1702E22985467
:105000000A240F2808D0334B9847334B9847334B2B
:105010009847200007B030BD1C0018008330283AA4
:105020002F49304DA8472000A33024222E49A847FD
:1050300006202649FF240B794A7912021A438B79FC
:105040001B041A43CB791B0613431B185C700230F8
:105050002028F0D11D4C1E22C223FF33E2542078B9
:1050600063781B020343A07800040343E078000642
:10507000184322321D491B4B9847062306211C4A20
:10508000A15400211B4AA154A2185370013184225B
:105090009200A154A21853700022174BE254E31857
:1050A0005A7083239B00E2549C466444002363703F
:1050B00002AB02321A71114A00921149039A114B44
:1050C0000620114CA04708249DE7C046501300203D
:1050D0004C1300202D910000B1960000759900003E
:1050E00080C90100D55B01005CC9010088C90100CD
:1050F0000B0200000E02000012020000F94E000038
:105100003C110020C8C9010045A100007047000003
:10511000F0B5C64600B586B0974B032126229954B8
:10512000102504329D540139013A99540124023A60
:105130009C541A0083320024A0461A71160A5E712C
:10514000160C9E71120EDA711A0043321A70160A8A
:105150005E70160C9E70120EDA701A00C432FF32A6
:105160001A73160A5E73160C9E73120EDA731A0007
:10517000A3321A72160A5E72160C9E72120EDA7240
:105180001A006432FF321A74160A5E74160C9E748A
:10519000120EDA741A0034321A75160A5E75160C7D
:1051A0009E75120EDA751A003D321A76160A5E7670
:1051B000160C9E76120EDA762222995401329954F8
:1051C00000221A77163A5A771C329A773132DA77F8
:1051D000163A99543426013A9E54193A103E9A557B
:1051E00001369C55203EBE27FF37DE550E3FFF3F60
:1051F000BC460F37FF376446DC55C027FF37DE5506
:10520000BC36FF3699552A315A5401315A5421324D
:105210009D545A4A15788031FF315D545578682184
:10522000FF315D5495782B39FF395D54D1783C229C
:1052300099540021043A99540132995401329954F5
:10524000013299540732414699541A003E320021E6
:10525000117051709170D170C331FF315A5C0124CB
:105260002243022422435A542E2298540A24052809
:105270000AD0434B9847434B9847434B98472000ED
:1052800006B004BC9046F0BD1C00180083302A3ADA
:105290003E493F4DA8472000A33018223D49A8476A
:1052A0002000C430FF3018223B49A8472000AE3010
:1052B000FF3004223949A847022302222E49C03F69
:1052C0000025973EFF3E08794C79240204438879F3
:1052D00000040443C8790006204354002018477096
:1052E00058339B00CB181D725D729D72DD720132C6
:1052F000D2B2130088578242E5DB1F4CFF222F23D6
:10530000E254EF3AC223FF33E254207863781B0261
:105310000343A07800040343E078000618433032CA
:105320001F491B4B9847072307211E4AA154002100
:105330001D4AA154A2185370013184229200A15435
:10534000A21853700022194BE254E3185A708323B9
:105350009B00E2549C4664440023637002AB02321B
:105360001A71134A00921349039A134B0720134CE6
:10537000A04708247DE7C046501300204C130020AE
:105380006192000019970000D9990000F0C901004E
:10539000D55B0100D8C9010038CA010034CA010038
:1053A000F4C901000B0200000E020000120200000E
:1053B0000D5100004011002050CA010045A100001D
:1053C00070470000F0B5DE4657464E464546E0B50C
:1053D00087B0A94B032426229C54102104329954EF
:1053E000293A19315A5402395A541A008332002189
:1053F0001A71150A5D71150C9D71120EDA711A0081
:1054000043321A70150A5D70150C9D70120EDA7019
:105410001A00A3321A72150A5D72150C9D72120ED3
:10542000DA721A006432FF321A74150A5D74150CB0
:105430009D74120EDA741A0034321A75150A5D75ED
:10544000150C9D75120EDA751A003D321A76150A82
:105450005D76150C9D76120EDA7622229954013271
:105460009954433A1A7733325A77203A9A7743322B
:10547000DA77153A9C543425013A9D541B3A103D75
:105480005A55013559551B3DBE26FF369D55BF2740
:1054900001369F55C026FF369D55B735FF355C5503
:1054A00029341A55253C28329C540734053A9C541B
:1054B000724A15789F34FF341D555578703CFF3C77
:1054C0001D5594783C229C540024043A9C5401328B
:1054D0009C5401329C5401329C54073299541A0056
:1054E0003E32117051709170D1702E229854C63492
:1054F00004280DD0624B9847624B9847624B9847FF
:10550000200007B03CBC90469946A246AB46F0BD91
:105510001C0018008330283A5C495D4DA8472000E4
:10552000A33024225B49A84703210320524BFF22CA
:1055300092460024C222FF3294465746983AFF3AD8
:10554000934642001E79B0465E793602B146464621
:105550004D462E439D792D042E43DD792D062E4395
:10556000B0469044454656466E701D79A8465D7912
:105570002D0246462E439D792D042E43DD792D06BE
:105580002E43B4541D7AA8465D7A2D0246462E431A
:105590009D7A2D042E43DD7A2D062E43B046121837
:1055A00092004244547262469F540A00583292005C
:1055B0009A18147254729472D4720130C0B20100FD
:1055C0005A469A569042BCDB2B4CFF222F23E254C2
:1055D000207863781B020343A07800040343E0783B
:1055E00000061843CF3A2C49294B98472523E35C02
:1055F000002B18DD204A117853781B020B43917859
:1056000009040B43D1780906194300230126072515
:1056100014002520DA008A18D671957101335BB227
:10562000225C9342F6DB144B052205201B4958549B
:1056300000201B49585459184A70013084218900B0
:10564000585459184A700021164A99549A185170A2
:105650008322920099549446634400225A7002AB0C
:1056600002321A71104A00921049039A104B04300A
:10567000104CA04708243DE7501300204C13002095
:10568000BD93000085970000599A000084CA01006C
:10569000D55B010060CA01008CCA01000B0200004A
:1056A0000E02000012020000C1530000441100204D
:1056B000BCCA010045A1000070470000F0B5DE46FD
:1056C00057464E464546E0B589B003907D4C0227CB
:1056D00002239B462623E75448220433E254413AEE
:1056E000033BE25417320133E2542300B333180072
:1056F000002523711B0A6371030CA371030EE37170
:10570000260043362670330A6370330CA370330EC1
:10571000E3702123E132E254DD3A173BA3541A3AF5
:1057200008218C46232162548339884621777021D1
:1057300061776146A1773721E177173938236354C0
:105740001C39894620314B4663542523E5545423A4
:10575000FF331C31E1540133E2545023FF33E5544D
:1057600001334946E1545223FF33E254453BFF3BAA
:105770004B32FF32A3545622FF320A23A354220095
:1057800034322275130A6375130CA375120EE27579
:1057900022003D322276130A6376130CA376120E92
:1057A000E27660234422FF32A35422004432FF32C7
:1057B0000123537038235B4293703523D370402309
:1057C0005B424822FF32A35422004832FF32512369
:1057D0005B4253702E235B4293703523D3704C226F
:1057E000FF324346A35422004C32FF3270235370E1
:1057F000634693703723D37003232C22A3540132C2
:105800000A23A3545823FF33E5542F4B1A789446A8
:105810003D226146A1545A783C23E25400233822A9
:10582000A35400223933E2540133E2540133E254E9
:105830000733E55423003E331A705A709A70DA70B9
:105840002E236A46127BE25490222049204B984630
:10585000984770221F493000C047AB235B00E554D6
:105860001D4BE75400221D4BE254E3185A465A7070
:10587000002284239B00E254E3185A70184BE25430
:10588000E3185A7083239B000122E2549C4664442F
:105890005B46637004AB1F71124A00921249059A6D
:1058A000124B0220124CA047124B9847124B9847BC
:1058B000124B9847082009B03CBC90469946A24636
:1058C000AB46F0BD501300204C130020CCCA0100A1
:1058D000D55B01005CCB01000B0200000E02000052
:1058E00012020000B956000048110020CCCB010084
:1058F00045A10000258C000005950000ED970000F3
:1059000015207047152070472A230249CB5C13707D
:10591000082070475013002005492123C85C1070EF
:10592000CB5C0820FF2B00D070470230FCE7C0465C
:105930005013002022230249CB5C137008207047CB
:105940005013002023230249CB5C137008207047BA
:105950005013002020230249CB5C136008207047BD
:105960005013002030B583B015000C7801A90C70DD
:1059700001234B700D4B5B6D15209847082804D010
:10598000FF232B700A2003B030BD09490B794A79F7
:10599000120213438A7912041A43CB791B061A4365
:1059A00063009B185B782B70EDE7C046880D0020E4
:1059B0005013002030B583B015000C7801A90C708D
:1059C00001234B700C4B5B6D15209847082804D0C1
:1059D00000232B700A2003B030BD08490A794B79A7
:1059E0001B0213438A7912041343CA7912061A431D
:1059F0006400A35C2B70EEE7880D0020501300209C
:105A000001235B4213800A20704701235B4213602D
:105A10000A207047FA239B00138008207047FA235E
:105A2000DB00138008207047014B1380082070476B
:105A300088130000014B1380082070477017000086
:105A4000FA23DB00138008207047202313700820FE
:105A5000704740231370082070478023DB011380B8
:105A60000820704727230249CB5C13700820704739
:105A70005013002026230249CB5C13700820704786
:105A8000501300202F230249CB5C1370082070476D
:105A900050130020094BC021FF31595C9171BE2188
:105AA000FF31595C1180DF2149005B56538001238F
:105AB000D3710433938000207047C04650130020F8
:105AC00030B50B782A21204841560A208B4239DC18
:105AD0005420FF301C4C245CA3421CD30A208B4270
